{
  "_format": "hh-sol-artifact-1",
  "contractName": "CollateralProtection",
  "sourceName": "contracts/CollateralProtection.sol",
  "abi": [
    {
      "inputs": [
        {
          "internalType": "address",
          "name": "_escrowAddress",
          "type": "address"
        }
      ],
      "stateMutability": "nonpayable",
      "type": "constructor"
    },
    {
      "anonymous": false,
      "inputs": [
        {
          "indexed": true,
          "internalType": "address",
          "name": "user",
          "type": "address"
        }
      ],
      "name": "Delisted",
      "type": "event"
    },
    {
      "anonymous": false,
      "inputs": [
        {
          "indexed": true,
          "internalType": "address",
          "name": "user",
          "type": "address"
        }
      ],
      "name": "Whitelisted",
      "type": "event"
    },
    {
      "inputs": [],
      "name": "DEFAULT_PERIOD",
      "outputs": [
        {
          "internalType": "uint256",
          "name": "",
          "type": "uint256"
        }
      ],
      "stateMutability": "view",
      "type": "function"
    },
    {
      "inputs": [],
      "name": "INSURANCE_PERIOD",
      "outputs": [
        {
          "internalType": "uint256",
          "name": "",
          "type": "uint256"
        }
      ],
      "stateMutability": "view",
      "type": "function"
    },
    {
      "inputs": [],
      "name": "MAX_LOAN_AMOUNT",
      "outputs": [
        {
          "internalType": "uint256",
          "name": "",
          "type": "uint256"
        }
      ],
      "stateMutability": "view",
      "type": "function"
    },
    {
      "inputs": [],
      "name": "QUALIFICATION_PERIOD",
      "outputs": [
        {
          "internalType": "uint256",
          "name": "",
          "type": "uint256"
        }
      ],
      "stateMutability": "view",
      "type": "function"
    },
    {
      "inputs": [],
      "name": "comprehensiveInsuranceAmount",
      "outputs": [
        {
          "internalType": "uint256",
          "name": "",
          "type": "uint256"
        }
      ],
      "stateMutability": "view",
      "type": "function"
    },
    {
      "inputs": [
        {
          "internalType": "address",
          "name": "user",
          "type": "address"
        }
      ],
      "name": "delistUser",
      "outputs": [],
      "stateMutability": "nonpayable",
      "type": "function"
    },
    {
      "inputs": [],
      "name": "dropInValue",
      "outputs": [
        {
          "internalType": "bool",
          "name": "",
          "type": "bool"
        }
      ],
      "stateMutability": "view",
      "type": "function"
    },
    {
      "inputs": [],
      "name": "escrowAddress",
      "outputs": [
        {
          "internalType": "address",
          "name": "",
          "type": "address"
        }
      ],
      "stateMutability": "view",
      "type": "function"
    },
    {
      "inputs": [
        {
          "internalType": "address",
          "name": "user",
          "type": "address"
        }
      ],
      "name": "isWhitelisted",
      "outputs": [
        {
          "internalType": "bool",
          "name": "",
          "type": "bool"
        }
      ],
      "stateMutability": "view",
      "type": "function"
    },
    {
      "inputs": [
        {
          "internalType": "address",
          "name": "",
          "type": "address"
        }
      ],
      "name": "lastPaymentTimestamp",
      "outputs": [
        {
          "internalType": "uint256",
          "name": "",
          "type": "uint256"
        }
      ],
      "stateMutability": "view",
      "type": "function"
    },
    {
      "inputs": [],
      "name": "loanAmount",
      "outputs": [
        {
          "internalType": "uint256",
          "name": "",
          "type": "uint256"
        }
      ],
      "stateMutability": "view",
      "type": "function"
    },
    {
      "inputs": [],
      "name": "payInsurance",
      "outputs": [],
      "stateMutability": "payable",
      "type": "function"
    },
    {
      "inputs": [],
      "name": "regularInsuranceAmount",
      "outputs": [
        {
          "internalType": "uint256",
          "name": "",
          "type": "uint256"
        }
      ],
      "stateMutability": "view",
      "type": "function"
    },
    {
      "inputs": [],
      "name": "totalLoss",
      "outputs": [
        {
          "internalType": "bool",
          "name": "",
          "type": "bool"
        }
      ],
      "stateMutability": "view",
      "type": "function"
    },
    {
      "inputs": [
        {
          "internalType": "bool",
          "name": "_totalLoss",
          "type": "bool"
        },
        {
          "internalType": "bool",
          "name": "_dropInValue",
          "type": "bool"
        }
      ],
      "name": "updateCollateralStatus",
      "outputs": [],
      "stateMutability": "nonpayable",
      "type": "function"
    },
    {
      "inputs": [
        {
          "internalType": "address",
          "name": "",
          "type": "address"
        }
      ],
      "name": "whitelist",
      "outputs": [
        {
          "internalType": "bool",
          "name": "",
          "type": "bool"
        }
      ],
      "stateMutability": "view",
      "type": "function"
    }
  ],
  "bytecode": "0x60806040526611c37937e08000600355662386f26fc1000060045534801561002657600080fd5b506040516200103938038062001039833981810160405281019061004a91906100f3565b806000806101000a81548173ffffffffffffffffffffffffffffffffffffffff021916908373ffffffffffffffffffffffffffffffffffffffff16021790555050610120565b600080fd5b600073ffffffffffffffffffffffffffffffffffffffff82169050919050565b60006100c082610095565b9050919050565b6100d0816100b5565b81146100db57600080fd5b50565b6000815190506100ed816100c7565b92915050565b60006020828403121561010957610108610090565b5b6000610117848285016100de565b91505092915050565b610f0980620001306000396000f3fe6080604052600436106100f35760003560e01c8063940ccda01161008a578063c3df657911610059578063c3df65791461030d578063ceba179414610338578063e412f19714610363578063e695df001461038e576100f3565b8063940ccda0146102535780639b19251a1461027c5780639d585f7f146102b9578063bd5493be146102e4576100f3565b806347177aa1116100c657806347177aa1146101c85780634c30aa08146101f357806368a74d541461021e578063780e789314610228576100f3565b80630b56f84f146100f85780630d457ee1146101355780630d5defa4146101605780633af32abf1461018b575b600080fd5b34801561010457600080fd5b5061011f600480360381019061011a9190610afc565b6103b9565b60405161012c9190610b42565b60405180910390f35b34801561014157600080fd5b5061014a6103d1565b6040516101579190610b78565b60405180910390f35b34801561016c57600080fd5b506101756103e4565b6040516101829190610ba2565b60405180910390f35b34801561019757600080fd5b506101b260048036038101906101ad9190610afc565b610408565b6040516101bf9190610b78565b60405180910390f35b3480156101d457600080fd5b506101dd61045e565b6040516101ea9190610b42565b60405180910390f35b3480156101ff57600080fd5b50610208610464565b6040516102159190610b78565b60405180910390f35b610226610477565b005b34801561023457600080fd5b5061023d610644565b60405161024a9190610b42565b60405180910390f35b34801561025f57600080fd5b5061027a60048036038101906102759190610be9565b61064b565b005b34801561028857600080fd5b506102a3600480360381019061029e9190610afc565b6108de565b6040516102b09190610b78565b60405180910390f35b3480156102c557600080fd5b506102ce6108fe565b6040516102db9190610b42565b60405180910390f35b3480156102f057600080fd5b5061030b60048036038101906103069190610afc565b610904565b005b34801561031957600080fd5b50610322610a79565b60405161032f9190610b42565b60405180910390f35b34801561034457600080fd5b5061034d610a80565b60405161035a9190610b42565b60405180910390f35b34801561036f57600080fd5b50610378610a8c565b6040516103859190610b42565b60405180910390f35b34801561039a57600080fd5b506103a3610a93565b6040516103b09190610b42565b60405180910390f35b60026020528060005260406000206000915090505481565b600560009054906101000a900460ff1681565b60008054906101000a900473ffffffffffffffffffffffffffffffffffffffff1681565b6000600160008373ffffffffffffffffffffffffffffffffffffffff1673ffffffffffffffffffffffffffffffffffffffff16815260200190815260200160002060009054906101000a900460ff169050919050565b60045481565b600560019054906101000a900460ff1681565b61048033610408565b6104bf576040517f08c379a00000000000000000000000000000000000000000000000000000000081526004016104b690610c86565b60405180910390fd5b6003543414806104d0575060045434145b61050f576040517f08c379a000000000000000000000000000000000000000000000000000000000815260040161050690610cf2565b60405180910390fd5b42600260003373ffffffffffffffffffffffffffffffffffffffff1673ffffffffffffffffffffffffffffffffffffffff1681526020019081526020016000208190555062dd7c00600260003373ffffffffffffffffffffffffffffffffffffffff1673ffffffffffffffffffffffffffffffffffffffff16815260200190815260200160002054426105a29190610d41565b106106425760018060003373ffffffffffffffffffffffffffffffffffffffff1673ffffffffffffffffffffffffffffffffffffffff16815260200190815260200160002060006101000a81548160ff0219169083151502179055503373ffffffffffffffffffffffffffffffffffffffff167faab7954e9d246b167ef88aeddad35209ca2489d95a8aeb59e288d9b19fae5a5460405160405180910390a25b565b6203f48081565b60008054906101000a900473ffffffffffffffffffffffffffffffffffffffff1673ffffffffffffffffffffffffffffffffffffffff163373ffffffffffffffffffffffffffffffffffffffff16146106d9576040517f08c379a00000000000000000000000000000000000000000000000000000000081526004016106d090610de7565b60405180910390fd5b81600560006101000a81548160ff02191690831515021790555080600560016101000a81548160ff021916908315150217905550600560009054906101000a900460ff1680156107725750600160003373ffffffffffffffffffffffffffffffffffffffff1673ffffffffffffffffffffffffffffffffffffffff16815260200190815260200160002060009054906101000a900460ff165b156107ef5760006006541180156107935750671bc16d674ec8000060065411155b156107ea573373ffffffffffffffffffffffffffffffffffffffff166108fc6006549081150290604051600060405180830381858888f193505050501580156107e0573d6000803e3d6000fd5b5060006006819055505b6108da565b600560019054906101000a900460ff1680156108545750600160003373ffffffffffffffffffffffffffffffffffffffff1673ffffffffffffffffffffffffffffffffffffffff16815260200190815260200160002060009054906101000a900460ff165b156108d95760006006541180156108755750671bc16d674ec8000060065411155b156108d8573373ffffffffffffffffffffffffffffffffffffffff166108fc60026006546108a39190610e36565b9081150290604051600060405180830381858888f193505050501580156108ce573d6000803e3d6000fd5b5060006006819055505b5b5b5050565b60016020528060005260406000206000915054906101000a900460ff1681565b60065481565b61090d81610408565b61094c576040517f08c379a000000000000000000000000000000000000000000000000000000000815260040161094390610c86565b60405180910390fd5b6203f480600260008373ffffffffffffffffffffffffffffffffffffffff1673ffffffffffffffffffffffffffffffffffffffff168152602001908152602001600020544261099b9190610d41565b116109db576040517f08c379a00000000000000000000000000000000000000000000000000000000081526004016109d290610eb3565b60405180910390fd5b6000600160008373ffffffffffffffffffffffffffffffffffffffff1673ffffffffffffffffffffffffffffffffffffffff16815260200190815260200160002060006101000a81548160ff0219169083151502179055508073ffffffffffffffffffffffffffffffffffffffff167f7e1dd2258a1fa02a8360869a16fa4e1d4649c796d79a8d520f03a1dd8ae41af060405160405180910390a250565b6224ea0081565b671bc16d674ec8000081565b62dd7c0081565b60035481565b600080fd5b600073ffffffffffffffffffffffffffffffffffffffff82169050919050565b6000610ac982610a9e565b9050919050565b610ad981610abe565b8114610ae457600080fd5b50565b600081359050610af681610ad0565b92915050565b600060208284031215610b1257610b11610a99565b5b6000610b2084828501610ae7565b91505092915050565b6000819050919050565b610b3c81610b29565b82525050565b6000602082019050610b576000830184610b33565b92915050565b60008115159050919050565b610b7281610b5d565b82525050565b6000602082019050610b8d6000830184610b69565b92915050565b610b9c81610abe565b82525050565b6000602082019050610bb76000830184610b93565b92915050565b610bc681610b5d565b8114610bd157600080fd5b50565b600081359050610be381610bbd565b92915050565b60008060408385031215610c0057610bff610a99565b5b6000610c0e85828601610bd4565b9250506020610c1f85828601610bd4565b9150509250929050565b600082825260208201905092915050565b7f55736572206973206e6f742077686974656c6973746564000000000000000000600082015250565b6000610c70601783610c29565b9150610c7b82610c3a565b602082019050919050565b60006020820190508181036000830152610c9f81610c63565b9050919050565b7f496e76616c696420696e737572616e636520616d6f756e740000000000000000600082015250565b6000610cdc601883610c29565b9150610ce782610ca6565b602082019050919050565b60006020820190508181036000830152610d0b81610ccf565b9050919050565b7f4e487b7100000000000000000000000000000000000000000000000000000000600052601160045260246000fd5b6000610d4c82610b29565b9150610d5783610b29565b9250828203905081811115610d6f57610d6e610d12565b5b92915050565b7f4f6e6c792074686520657363726f7720616464726573732063616e2063616c6c60008201527f20746869732066756e6374696f6e000000000000000000000000000000000000602082015250565b6000610dd1602e83610c29565b9150610ddc82610d75565b604082019050919050565b60006020820190508181036000830152610e0081610dc4565b9050919050565b7f4e487b7100000000000000000000000000000000000000000000000000000000600052601260045260246000fd5b6000610e4182610b29565b9150610e4c83610b29565b925082610e5c57610e5b610e07565b5b828204905092915050565b7f5573657220686173206e6f742064656661756c74656400000000000000000000600082015250565b6000610e9d601683610c29565b9150610ea882610e67565b602082019050919050565b60006020820190508181036000830152610ecc81610e90565b905091905056fea2646970667358221220779e8298af843f3a28b57094402bb7296f3eba29c71fbaddbf8ffb7d2987f81164736f6c63430008130033",
  "linkReferences": {},
  "deployedLinkReferences": {}
}