{
  "_format": "hh-sol-artifact-1",
  "contractName": "InsuranceProtocolFactory",
  "sourceName": "contracts/InsuranceProtocolFactory.sol",
  "abi": [
    {
      "inputs": [
        {
          "internalType": "address",
          "name": "",
          "type": "address"
        }
      ],
      "name": "contractOwners",
      "outputs": [
        {
          "internalType": "address",
          "name": "",
          "type": "address"
        }
      ],
      "stateMutability": "view",
      "type": "function"
    },
    {
      "inputs": [],
      "name": "createInsuranceContract",
      "outputs": [],
      "stateMutability": "nonpayable",
      "type": "function"
    },
    {
      "inputs": [
        {
          "internalType": "uint256",
          "name": "",
          "type": "uint256"
        }
      ],
      "name": "deployedContracts",
      "outputs": [
        {
          "internalType": "address",
          "name": "",
          "type": "address"
        }
      ],
      "stateMutability": "view",
      "type": "function"
    },
    {
      "inputs": [
        {
          "internalType": "address",
          "name": "walletAddress",
          "type": "address"
        }
      ],
      "name": "getContractByOwner",
      "outputs": [
        {
          "internalType": "address",
          "name": "",
          "type": "address"
        }
      ],
      "stateMutability": "view",
      "type": "function"
    },
    {
      "inputs": [],
      "name": "getDeployedContracts",
      "outputs": [
        {
          "internalType": "address[]",
          "name": "",
          "type": "address[]"
        }
      ],
      "stateMutability": "view",
      "type": "function"
    },
    {
      "inputs": [
        {
          "internalType": "address",
          "name": "",
          "type": "address"
        }
      ],
      "name": "hasContract",
      "outputs": [
        {
          "internalType": "bool",
          "name": "",
          "type": "bool"
        }
      ],
      "stateMutability": "view",
      "type": "function"
    }
  ],
  "bytecode": "0x608060405234801561001057600080fd5b506124ca806100206000396000f3fe608060405234801561001057600080fd5b50600436106100625760003560e01c80631a9a6c95146100675780636d55b6e9146100975780637edebec2146100c75780639ad1ee10146100f7578063aa9a068f14610127578063f382ad9d14610145575b600080fd5b610081600480360381019061007c919061053e565b61014f565b60405161008e9190610586565b60405180910390f35b6100b160048036038101906100ac919061053e565b61016f565b6040516100be91906105b0565b60405180910390f35b6100e160048036038101906100dc919061053e565b6101a2565b6040516100ee91906105b0565b60405180910390f35b610111600480360381019061010c9190610601565b61020b565b60405161011e91906105b0565b60405180910390f35b61012f61024a565b60405161013c91906106ec565b60405180910390f35b61014d6102d8565b005b60026020528060005260406000206000915054906101000a900460ff1681565b60016020528060005260406000206000915054906101000a900473ffffffffffffffffffffffffffffffffffffffff1681565b6000600160008373ffffffffffffffffffffffffffffffffffffffff1673ffffffffffffffffffffffffffffffffffffffff16815260200190815260200160002060009054906101000a900473ffffffffffffffffffffffffffffffffffffffff169050919050565b6000818154811061021b57600080fd5b906000526020600020016000915054906101000a900473ffffffffffffffffffffffffffffffffffffffff1681565b606060008054806020026020016040519081016040528092919081815260200182805480156102ce57602002820191906000526020600020905b8160009054906101000a900473ffffffffffffffffffffffffffffffffffffffff1673ffffffffffffffffffffffffffffffffffffffff1681526020019060010190808311610284575b5050505050905090565b600260003373ffffffffffffffffffffffffffffffffffffffff1673ffffffffffffffffffffffffffffffffffffffff16815260200190815260200160002060009054906101000a900460ff1615610365576040517f08c379a000000000000000000000000000000000000000000000000000000000815260040161035c90610791565b60405180910390fd5b6000604051610373906104ce565b604051809103906000f08015801561038f573d6000803e3d6000fd5b5090506000819080600181540180825580915050600190039060005260206000200160009091909190916101000a81548173ffffffffffffffffffffffffffffffffffffffff021916908373ffffffffffffffffffffffffffffffffffffffff16021790555080600160003373ffffffffffffffffffffffffffffffffffffffff1673ffffffffffffffffffffffffffffffffffffffff16815260200190815260200160002060006101000a81548173ffffffffffffffffffffffffffffffffffffffff021916908373ffffffffffffffffffffffffffffffffffffffff1602179055506001600260003373ffffffffffffffffffffffffffffffffffffffff1673ffffffffffffffffffffffffffffffffffffffff16815260200190815260200160002060006101000a81548160ff02191690831515021790555050565b611ce3806107b283390190565b600080fd5b600073ffffffffffffffffffffffffffffffffffffffff82169050919050565b600061050b826104e0565b9050919050565b61051b81610500565b811461052657600080fd5b50565b60008135905061053881610512565b92915050565b600060208284031215610554576105536104db565b5b600061056284828501610529565b91505092915050565b60008115159050919050565b6105808161056b565b82525050565b600060208201905061059b6000830184610577565b92915050565b6105aa81610500565b82525050565b60006020820190506105c560008301846105a1565b92915050565b6000819050919050565b6105de816105cb565b81146105e957600080fd5b50565b6000813590506105fb816105d5565b92915050565b600060208284031215610617576106166104db565b5b6000610625848285016105ec565b91505092915050565b600081519050919050565b600082825260208201905092915050565b6000819050602082019050919050565b61066381610500565b82525050565b6000610675838361065a565b60208301905092915050565b6000602082019050919050565b60006106998261062e565b6106a38185610639565b93506106ae8361064a565b8060005b838110156106df5781516106c68882610669565b97506106d183610681565b9250506001810190506106b2565b5085935050505092915050565b60006020820190508181036000830152610706818461068e565b905092915050565b600082825260208201905092915050565b7f436f6e747261637420616c72656164792065786973747320666f72207468697360008201527f2061646472657373000000000000000000000000000000000000000000000000602082015250565b600061077b60288361070e565b91506107868261071f565b604082019050919050565b600060208201905081810360008301526107aa8161076e565b905091905056fe608060405234801561001057600080fd5b50326000806101000a81548173ffffffffffffffffffffffffffffffffffffffff021916908373ffffffffffffffffffffffffffffffffffffffff160217905550611c83806100606000396000f3fe60806040526004361061009c5760003560e01c80636f9fb98a116100645780636f9fb98a1461012b5780637077dc0b14610156578063a87430ba14610160578063c6788bdd146101a1578063ce606ee0146101de578063dbb773d9146102095761009c565b80631afbd128146100a15780631f30ed7a146100b857806324600fc3146100e1578063263de348146100f85780633a0132c714610114575b600080fd5b3480156100ad57600080fd5b506100b6610232565b005b3480156100c457600080fd5b506100df60048036038101906100da9190611336565b6103de565b005b3480156100ed57600080fd5b506100f6610618565b005b610112600480360381019061010d9190611388565b610776565b005b34801561012057600080fd5b50610129610afe565b005b34801561013757600080fd5b50610140610bea565b60405161014d91906113ce565b60405180910390f35b61015e610c81565b005b34801561016c57600080fd5b5061018760048036038101906101829190611336565b610f03565b60405161019895949392919061147b565b60405180910390f35b3480156101ad57600080fd5b506101c860048036038101906101c39190611336565b610f53565b6040516101d59190611516565b60405180910390f35b3480156101ea57600080fd5b506101f3610f73565b6040516102009190611540565b60405180910390f35b34801561021557600080fd5b50610230600480360381019061022b9190611336565b610f97565b005b600160003373ffffffffffffffffffffffffffffffffffffffff1673ffffffffffffffffffffffffffffffffffffffff16815260200190815260200160002060040160009054906101000a900460ff166102c1576040517f08c379a00000000000000000000000000000000000000000000000000000000081526004016102b8906115de565b60405180910390fd5b600060028111156102d5576102d46113e9565b5b600260003373ffffffffffffffffffffffffffffffffffffffff1673ffffffffffffffffffffffffffffffffffffffff16815260200190815260200160002060009054906101000a900460ff166002811115610334576103336113e9565b5b14610374576040517f08c379a000000000000000000000000000000000000000000000000000000000815260040161036b90611670565b60405180910390fd5b6000600260003373ffffffffffffffffffffffffffffffffffffffff1673ffffffffffffffffffffffffffffffffffffffff16815260200190815260200160002060006101000a81548160ff021916908360028111156103d7576103d66113e9565b5b0217905550565b60008054906101000a900473ffffffffffffffffffffffffffffffffffffffff1673ffffffffffffffffffffffffffffffffffffffff163373ffffffffffffffffffffffffffffffffffffffff161461046c576040517f08c379a000000000000000000000000000000000000000000000000000000000815260040161046390611702565b60405180910390fd5b600160008273ffffffffffffffffffffffffffffffffffffffff1673ffffffffffffffffffffffffffffffffffffffff16815260200190815260200160002060040160009054906101000a900460ff166104fb576040517f08c379a00000000000000000000000000000000000000000000000000000000081526004016104f2906115de565b60405180910390fd5b6000600281111561050f5761050e6113e9565b5b600260008373ffffffffffffffffffffffffffffffffffffffff1673ffffffffffffffffffffffffffffffffffffffff16815260200190815260200160002060009054906101000a900460ff16600281111561056e5761056d6113e9565b5b146105ae576040517f08c379a00000000000000000000000000000000000000000000000000000000081526004016105a59061176e565b60405180910390fd5b60028060008373ffffffffffffffffffffffffffffffffffffffff1673ffffffffffffffffffffffffffffffffffffffff16815260200190815260200160002060006101000a81548160ff021916908360028111156106105761060f6113e9565b5b021790555050565b60008054906101000a900473ffffffffffffffffffffffffffffffffffffffff1673ffffffffffffffffffffffffffffffffffffffff163373ffffffffffffffffffffffffffffffffffffffff16146106a6576040517f08c379a000000000000000000000000000000000000000000000000000000000815260040161069d90611702565b60405180910390fd5b60008060009054906101000a900473ffffffffffffffffffffffffffffffffffffffff1673ffffffffffffffffffffffffffffffffffffffff16476040516106ed906117bf565b60006040518083038185875af1925050503d806000811461072a576040519150601f19603f3d011682016040523d82523d6000602084013e61072f565b606091505b5050905080610773576040517f08c379a000000000000000000000000000000000000000000000000000000000815260040161076a90611820565b60405180910390fd5b50565b6000600281111561078a576107896113e9565b5b81600281111561079d5761079c6113e9565b5b101580156107cf57506002808111156107b9576107b86113e9565b5b8160028111156107cc576107cb6113e9565b5b11155b61080e576040517f08c379a0000000000000000000000000000000000000000000000000000000008152600401610805906118b2565b60405180910390fd5b600160003373ffffffffffffffffffffffffffffffffffffffff1673ffffffffffffffffffffffffffffffffffffffff16815260200190815260200160002060040160009054906101000a900460ff161561089e576040517f08c379a000000000000000000000000000000000000000000000000000000000815260040161089590611944565b60405180910390fd5b6000600160003373ffffffffffffffffffffffffffffffffffffffff1673ffffffffffffffffffffffffffffffffffffffff1681526020019081526020016000209050818160000160006101000a81548160ff02191690836002811115610908576109076113e9565b5b021790555060018160040160006101000a81548160ff02191690831515021790555042816002018190555060006002811115610947576109466113e9565b5b82600281111561095a576109596113e9565b5b0361096e57606481600101819055506109e1565b60016002811115610982576109816113e9565b5b826002811115610995576109946113e9565b5b036109a957607881600101819055506109e0565b6002808111156109bc576109bb6113e9565b5b8260028111156109cf576109ce6113e9565b5b036109df57609681600101819055505b5b5b8060010154341015610a28576040517f08c379a0000000000000000000000000000000000000000000000000000000008152600401610a1f906119b0565b60405180910390fd5b60008060009054906101000a900473ffffffffffffffffffffffffffffffffffffffff1673ffffffffffffffffffffffffffffffffffffffff168260010154604051610a73906117bf565b60006040518083038185875af1925050503d8060008114610ab0576040519150601f19603f3d011682016040523d82523d6000602084013e610ab5565b606091505b5050905080610af9576040517f08c379a0000000000000000000000000000000000000000000000000000000008152600401610af090611a1c565b60405180910390fd5b505050565b600160003373ffffffffffffffffffffffffffffffffffffffff1673ffffffffffffffffffffffffffffffffffffffff16815260200190815260200160002060040160009054906101000a900460ff16610b8d576040517f08c379a0000000000000000000000000000000000000000000000000000000008152600401610b84906115de565b60405180910390fd5b6000600160003373ffffffffffffffffffffffffffffffffffffffff1673ffffffffffffffffffffffffffffffffffffffff16815260200190815260200160002060040160006101000a81548160ff021916908315150217905550565b60008060009054906101000a900473ffffffffffffffffffffffffffffffffffffffff1673ffffffffffffffffffffffffffffffffffffffff163373ffffffffffffffffffffffffffffffffffffffff1614610c7b576040517f08c379a0000000000000000000000000000000000000000000000000000000008152600401610c7290611702565b60405180910390fd5b47905090565b6000600160003373ffffffffffffffffffffffffffffffffffffffff1673ffffffffffffffffffffffffffffffffffffffff16815260200190815260200160002090508060040160009054906101000a900460ff16610d15576040517f08c379a0000000000000000000000000000000000000000000000000000000008152600401610d0c906115de565b60405180910390fd5b6000816002015442610d279190611a6b565b905060006224ea0082610d3a9190611ace565b905060006224ea0082610d4d9190611aff565b8460020154610d5c9190611b41565b905080421015610da1576040517f08c379a0000000000000000000000000000000000000000000000000000000008152600401610d9890611bc1565b60405180910390fd5b6000600183610db09190611b41565b90506000856001015482610dc49190611aff565b905082866002018190555081866003016000828254610de39190611b41565b9250508190555080341015610e2d576040517f08c379a0000000000000000000000000000000000000000000000000000000008152600401610e24906119b0565b60405180910390fd5b60008060009054906101000a900473ffffffffffffffffffffffffffffffffffffffff1673ffffffffffffffffffffffffffffffffffffffff1682604051610e74906117bf565b60006040518083038185875af1925050503d8060008114610eb1576040519150601f19603f3d011682016040523d82523d6000602084013e610eb6565b606091505b5050905080610efa576040517f08c379a0000000000000000000000000000000000000000000000000000000008152600401610ef190611a1c565b60405180910390fd5b50505050505050565b60016020528060005260406000206000915090508060000160009054906101000a900460ff16908060010154908060020154908060030154908060040160009054906101000a900460ff16905085565b60026020528060005260406000206000915054906101000a900460ff1681565b60008054906101000a900473ffffffffffffffffffffffffffffffffffffffff1681565b60008054906101000a900473ffffffffffffffffffffffffffffffffffffffff1673ffffffffffffffffffffffffffffffffffffffff163373ffffffffffffffffffffffffffffffffffffffff1614611025576040517f08c379a000000000000000000000000000000000000000000000000000000000815260040161101c90611702565b60405180910390fd5b600160008273ffffffffffffffffffffffffffffffffffffffff1673ffffffffffffffffffffffffffffffffffffffff16815260200190815260200160002060040160009054906101000a900460ff166110b4576040517f08c379a00000000000000000000000000000000000000000000000000000000081526004016110ab906115de565b60405180910390fd5b600060028111156110c8576110c76113e9565b5b600260008373ffffffffffffffffffffffffffffffffffffffff1673ffffffffffffffffffffffffffffffffffffffff16815260200190815260200160002060009054906101000a900460ff166002811115611127576111266113e9565b5b14611167576040517f08c379a000000000000000000000000000000000000000000000000000000000815260040161115e9061176e565b60405180910390fd5b6001600260008373ffffffffffffffffffffffffffffffffffffffff1673ffffffffffffffffffffffffffffffffffffffff16815260200190815260200160002060006101000a81548160ff021916908360028111156111ca576111c96113e9565b5b021790555060006002600160008473ffffffffffffffffffffffffffffffffffffffff1673ffffffffffffffffffffffffffffffffffffffff168152602001908152602001600020600301546112209190611aff565b905060008273ffffffffffffffffffffffffffffffffffffffff1682604051611248906117bf565b60006040518083038185875af1925050503d8060008114611285576040519150601f19603f3d011682016040523d82523d6000602084013e61128a565b606091505b50509050806112ce576040517f08c379a00000000000000000000000000000000000000000000000000000000081526004016112c590611c2d565b60405180910390fd5b505050565b600080fd5b600073ffffffffffffffffffffffffffffffffffffffff82169050919050565b6000611303826112d8565b9050919050565b611313816112f8565b811461131e57600080fd5b50565b6000813590506113308161130a565b92915050565b60006020828403121561134c5761134b6112d3565b5b600061135a84828501611321565b91505092915050565b6003811061137057600080fd5b50565b60008135905061138281611363565b92915050565b60006020828403121561139e5761139d6112d3565b5b60006113ac84828501611373565b91505092915050565b6000819050919050565b6113c8816113b5565b82525050565b60006020820190506113e360008301846113bf565b92915050565b7f4e487b7100000000000000000000000000000000000000000000000000000000600052602160045260246000fd5b60038110611429576114286113e9565b5b50565b600081905061143a82611418565b919050565b600061144a8261142c565b9050919050565b61145a8161143f565b82525050565b60008115159050919050565b61147581611460565b82525050565b600060a0820190506114906000830188611451565b61149d60208301876113bf565b6114aa60408301866113bf565b6114b760608301856113bf565b6114c4608083018461146c565b9695505050505050565b600381106114df576114de6113e9565b5b50565b60008190506114f0826114ce565b919050565b6000611500826114e2565b9050919050565b611510816114f5565b82525050565b600060208201905061152b6000830184611507565b92915050565b61153a816112f8565b82525050565b60006020820190506115556000830184611531565b92915050565b600082825260208201905092915050565b7f5573657220646f6573206e6f74206861766520616e2061637469766520696e7360008201527f7572616e6365207061636b6167652e0000000000000000000000000000000000602082015250565b60006115c8602f8361155b565b91506115d38261156c565b604082019050919050565b600060208201905081810360008301526115f7816115bb565b9050919050565b7f436c61696d2068617320616c7265616479206265656e207375626d697474656460008201527f206f722070726f6365737365642e000000000000000000000000000000000000602082015250565b600061165a602e8361155b565b9150611665826115fe565b604082019050919050565b600060208201905081810360008301526116898161164d565b9050919050565b7f4f6e6c792074686520636f6e7472616374206f776e65722063616e207065726660008201527f6f726d207468697320616374696f6e2e00000000000000000000000000000000602082015250565b60006116ec60308361155b565b91506116f782611690565b604082019050919050565b6000602082019050818103600083015261171b816116df565b9050919050565b7f4e6f2070656e64696e6720636c61696d20666f72207468697320757365722e00600082015250565b6000611758601f8361155b565b915061176382611722565b602082019050919050565b600060208201905081810360008301526117878161174b565b9050919050565b600081905092915050565b50565b60006117a960008361178e565b91506117b482611799565b600082019050919050565b60006117ca8261179c565b9150819050919050565b7f5769746864726177616c206661696c65642e0000000000000000000000000000600082015250565b600061180a60128361155b565b9150611815826117d4565b602082019050919050565b60006020820190508181036000830152611839816117fd565b9050919050565b7f496e76616c696420696e737572616e6365207061636b6167652073656c65637460008201527f65642e0000000000000000000000000000000000000000000000000000000000602082015250565b600061189c60238361155b565b91506118a782611840565b604082019050919050565b600060208201905081810360008301526118cb8161188f565b9050919050565b7f5573657220616c72656164792068617320616e2061637469766520696e73757260008201527f616e6365207061636b6167652e00000000000000000000000000000000000000602082015250565b600061192e602d8361155b565b9150611939826118d2565b604082019050919050565b6000602082019050818103600083015261195d81611921565b9050919050565b7f496e73756666696369656e74207072656d69756d20616d6f756e742e00000000600082015250565b600061199a601c8361155b565b91506119a582611964565b602082019050919050565b600060208201905081810360008301526119c98161198d565b9050919050565b7f5072656d69756d207472616e73666572206661696c65642e0000000000000000600082015250565b6000611a0660188361155b565b9150611a11826119d0565b602082019050919050565b60006020820190508181036000830152611a35816119f9565b9050919050565b7f4e487b7100000000000000000000000000000000000000000000000000000000600052601160045260246000fd5b6000611a76826113b5565b9150611a81836113b5565b9250828203905081811115611a9957611a98611a3c565b5b92915050565b7f4e487b7100000000000000000000000000000000000000000000000000000000600052601260045260246000fd5b6000611ad9826113b5565b9150611ae4836113b5565b925082611af457611af3611a9f565b5b828204905092915050565b6000611b0a826113b5565b9150611b15836113b5565b9250828202611b23816113b5565b91508282048414831517611b3a57611b39611a3c565b5b5092915050565b6000611b4c826113b5565b9150611b57836113b5565b9250828201905080821115611b6f57611b6e611a3c565b5b92915050565b7f5072656d69756d207061796d656e74206973206e6f7420796574206475652e00600082015250565b6000611bab601f8361155b565b9150611bb682611b75565b602082019050919050565b60006020820190508181036000830152611bda81611b9e565b9050919050565b7f436c61696d207061796f7574206661696c65642e000000000000000000000000600082015250565b6000611c1760148361155b565b9150611c2282611be1565b602082019050919050565b60006020820190508181036000830152611c4681611c0a565b905091905056fea2646970667358221220ce5711008514773b4b896553de1710c46e878e9701504d8cb896abc14677c0e464736f6c63430008130033a2646970667358221220d1c75fbd2c667f98ffb8054fda600d05efb5b95701efd4c74a3c2c190f25a54164736f6c63430008130033",
  "linkReferences": {},
  "deployedLinkReferences": {}
}